:100000000C9434000C9446000C9446000C9446006A
:100010000C9446000C9446000C9446000C94460048
:100020000C9446000C9446000C9446000C94460038
:100030000C9446000C9446000C9446000C94460028
:100040000C9446000C9446000C9446000C94460018
:100050000C9446000C9446000C9446000C94460008
:100060000C9446000C94460011241FBECFEFD8E03C
:10007000DEBFCDBF21E0A0E0B1E001C01D92A930FC
:10008000B207E1F70E94CB000C94C2020C9400006E
:10009000873499F480910001909101010196909329
:1000A00001018093000188B18B7F88B988B18B7F73
:1000B00088B988B1886088B908958D3499F48091A1
:1000C0000201909103010196909303018093020134
:1000D00088B18D7F88B988B1846088B988B1877FFD
:1000E00088B90895803591F48091050190910601B9
:1000F0000196909306018093050188B1826088B9CA
:1001000088B18B7F88B988B1877F88B9089584B119
:10011000806284B984B1816084B984B18D7F84B9EF
:1001200087B1826087B987B1846087B987B18860F9
:1001300087B910928000089585B18E7F85B98AE0D5
:100140008A95F1F700C085B1816085B985E38A950C
:10015000F1F7000085B18E7F85B9199BFECF109213
:10016000850010928400E1E8F0E080818260808365
:100170001999FECF609184007091850010928100E2
:1001800080E090E00E94A30128E23EE74CE05CE3BF
:100190000E94550208950E9487000E949C00062F2D
:1001A000172FD82FC92F2F2D3E2D4D2D5C2D0E949E
:1001B00031019F7720E030E040E251E40E949E014F
:1001C00088231CF41092040103C081E08093040191
:1001D00020E030E048EC52E4602F712F8D2F9C2FEF
:1001E0000E949E01882344F480910401882321F019
:1001F00087E40E94480027C020E030E04AE753E44B
:10020000602F712F8D2F9C2F0E949E01882344F414
:1002100080910401882321F08DE40E94480013C0DE
:1002200020E030E04FEA53E4602F712F8D2F9C2F98
:100230000E949E0188233CF480910401882319F0D8
:1002400080E50E9448002FEF81EE94E0215080402D
:100250009040E1F700C00000F02EE12EDD2ECC2E04
:100260009CCF5058BB27AA270E9449010C941B021F
:100270000E940D0238F00E94140220F039F49F3FD2
:1002800019F426F40C940A020EF4E095E7FB0C94A2
:100290000402E92F0E942C0258F3BA176207730771
:1002A0008407950720F079F4A6F50C944E020EF41D
:1002B000E0950B2EBA2FA02D0B01B90190010C0176
:1002C000CA01A0011124FF27591B99F0593F50F48E
:1002D000503E68F11A16F040A22F232F342F4427E6
:1002E000585FF3CF469537952795A795F0405395DE
:1002F000C9F77EF41F16BA0B620B730B840BBAF0AE
:100300009150A1F0FF0FBB1F661F771F881FC2F718
:100310000EC0BA0F621F731F841F48F4879577952C
:100320006795B795F7959E3F08F0B0CF9395880FE6
:1003300008F09927EE0F9795879508950E94E001A0
:1003400008F481E00895E89409C097FB3EF4909585
:100350008095709561957F4F8F4F9F4F9923A9F09E
:10036000F92F96E9BB279395F6958795779567952D
:10037000B795F111F8CFFAF4BB0F11F460FF1BC071
:100380006F5F7F4F8F4F9F4F16C0882311F096E904
:1003900011C0772321F09EE8872F762F05C06623B2
:1003A00071F096E8862F70E060E02AF09A95660F6B
:1003B000771F881FDAF7880F9695879597F9089524
:1003C000990F0008550FAA0BE0E8FEEF1616170666
:1003D000E807F907C0F012161306E407F50798F0CE
:1003E000621B730B840B950B39F40A2661F0232BE7
:1003F000242B252B21F408950A2609F4A140A69563
:100400008FEF811D811D089597F99F6780E870E047
:1004100060E008959FEF80EC089500240A9416167A
:10042000170618060906089500240A9412161306E2
:10043000140605060895092E0394000C11F4882370
:1004400052F0BB0F40F4BF2B11F460FF04C06F5F8C
:100450007F4F8F4F9F4F089557FD9058440F551F62
:1004600059F05F3F71F04795880F97FB991F61F036
:100470009F3F79F087950895121613061406551FAD
:10048000F2CF4695F1DF08C0161617061806991F19
:10049000F1CF86957105610508940895E894BB270E
:1004A00066277727CB0197F908950E9468020C947C
:1004B0001B020E940D0238F00E94140220F09523C6
:1004C00011F00C9404020C940A0211240C944F02B3
:1004D0000E942C0270F3959FC1F3950F50E0551FB9
:1004E000629FF001729FBB27F00DB11D639FAA2789
:1004F000F00DB11DAA1F649F6627B00DA11D661FD8
:10050000829F2227B00DA11D621F739FB00DA11DF8
:10051000621F839FA00D611D221F749F3327A00DB2
:10052000611D231F849F600D211D822F762F6A2F4E
:1005300011249F5750409AF0F1F088234AF0EE0FB3
:10054000FF1FBB1F661F771F881F91505040A9F7E0
:100550009E3F510580F00C9404020C944F025F3FC3
:10056000E4F3983ED4F3869577956795B795F7951C
:10057000E7959F5FC1F7FE2B880F911D9695879594
:0805800097F90895F894FFCFEC
:00000001FF
