S01700006D696E692D70726F6A65746F2D6D312E7372656365
S11300000C9434000C9451000C9451000C94510045
S11300100C9451000C9451000C9451000C94510018
S11300200C9451000C9451000C9451000C94510008
S11300300C9451000C9451000C9451000C945100F8
S11300400C9451000C9451000C9451000C945100E8
S11300500C9451000C9451000C9451000C945100D8
S11300600C9451000C94510011241FBECFEFD8E022
S1130070DEBFCDBF11E0A0E0B1E0EEE2F6E002C0E9
S113008005900D92AA30B107D9F721E0AAE0B1E0BA
S113009001C01D92AB31B207E1F70E941F010C941D
S11300A015030C94000084B1816084B984B18D7F00
S11300B084B984B1806284B984B1806184B984B123
S11300C0886084B98EEF8AB987B1826087B987B1B5
S11300D0846087B987B1886087B987B1806187B93F
S11300E018B810928000109281000895873499F412
S11300F080910A0190910B01019690930B018093DA
S11301000A0185B18F7D85B985B18F7E85B985B1A9
S1130110886085B908958D3499F480910C0190918B
S11301200D01019690930D0180930C0185B18F7D93
S113013085B985B1806185B985B1877F85B9089511
S1130140803591F480910E0190910F010196909366
S11301500F0180930E0185B1806285B985B18F7ED0
S113016085B985B1877F85B9089585B18E7F85B9B5
S11301708AE08A95F1F700C085B1816085B985E38D
S11301808A95F1F7000085B18E7F85B9199BFECF62
S11301901092850010928400E1E8F0E08081826092
S11301A080831999FECF609184007091850010922C
S11301B0810080E090E00E94F60128E23EE74CE0F6
S11301C05CE30E94A802089588B18F7E88B98AE210
S11301D08BB98FED9EE20197F1F700C0000088B162
S11301E0806188B988B1877F88B9E0E0F1E08181D6
S11301F08BB98FED9EE20197F1F700C0000088B142
S1130200886088B988B18B7F88B982818BB98FED7A
S11302109EE20197F1F700C0000088B1846088B9BC
S113022088B18D7F88B980818BB98FED9EE201976B
S1130230F1F700C0000088B1826088B908950E9477
S113024053000E94B5006B017C0160931701709309
S113025018018093190190931A0120911201309191
S1130260130140911401509115010E9484019F775C
S1130270C1E020E030E040E251E40E94F101882333
S11302800CF0C0E081E08C2780931601882349F1AB
S113029020E030E048EC52E4C701B6010E94F101CD
S11302A0882324F487E40E9476001BC020E030E019
S11302B04AE753E4C701B6010E94F101882324F4FC
S11302C08DE40E9476000DC020E030E04FEA53E454
S11302D0C701B6010E94F10188231CF480E50E9445
S11302E076000E94E4008091170190911801A0917A
S11302F01901B0911A018093120190931301A093F4
S11303001401B09315019DCF5058BB27AA270E9412
S11303109C010C946E020E94600238F00E946702F5
S113032020F039F49F3F19F426F40C945D020EF486
S1130330E095E7FB0C945702E92F0E947F0258F3E3
S1130340BA17620773078407950720F079F4A6F5B6
S11303500C94A1020EF4E0950B2EBA2FA02D0B01E4
S1130360B90190010C01CA01A0011124FF27591BF6
S113037099F0593F50F4503E68F11A16F040A22FFC
S1130380232F342F4427585FF3CF4695379527956D
S1130390A795F0405395C9F77EF41F16BA0B620B6C
S11303A0730B840BBAF09150A1F0FF0FBB1F661FB3
S11303B0771F881FC2F70EC0BA0F621F731F841FF6
S11303C048F4879577956795B795F7959E3F08F01C
S11303D0B0CF9395880F08F09927EE0F97958795DE
S11303E008950E94330208F481E00895E89409C056
S11303F097FB3EF490958095709561957F4F8F4F54
S11304009F4F9923A9F0F92F96E9BB279395F69569
S1130410879577956795B795F111F8CFFAF4BB0FE7
S113042011F460FF1BC06F5F7F4F8F4F9F4F16C04B
S1130430882311F096E911C0772321F09EE8872FD5
S1130440762F05C0662371F096E8862F70E060E091
S11304502AF09A95660F771F881FDAF7880F96950A
S1130460879597F90895990F0008550FAA0BE0E8AE
S1130470FEEF16161706E807F907C0F01216130662
S1130480E407F50798F0621B730B840B950B39F4A2
S11304900A2661F0232B242B252B21F408950A2608
S11304A009F4A140A6958FEF811D811D089597F948
S11304B09F6780E870E060E008959FEF80EC089506
S11304C000240A941616170618060906089500242F
S11304D00A9412161306140605060895092E0394A9
S11304E0000C11F4882352F0BB0F40F4BF2B11F41D
S11304F060FF04C06F5F7F4F8F4F9F4F089557FD7C
S11305009058440F551F59F05F3F71F04795880F7D
S113051097FB991F61F09F3F79F087950895121614
S113052013061406551FF2CF4695F1DF08C01616C0
S113053017061806991FF1CF869571056105089471
S11305400895E894BB2766277727CB0197F9089588
S11305500E94BB020C946E020E94600238F00E945A
S1130560670220F0952311F00C9457020C945D025D
S113057011240C94A2020E947F0270F3959FC1F390
S1130580950F50E0551F629FF001729FBB27F00D3D
S1130590B11D639FAA27F00DB11DAA1F649F662792
S11305A0B00DA11D661F829F2227B00DA11D621FE1
S11305B0739FB00DA11D621F839FA00D611D221F9B
S11305C0749F3327A00D611D231F849F600D211D7F
S11305D0822F762F6A2F11249F5750409AF0F1F002
S11305E088234AF0EE0FFF1FBB1F661F771F881F6B
S11305F091505040A9F79E3F510580F00C9457024A
S11306000C94A2025F3FE4F3983ED4F38695779569
S11306106795B795F795E7959F5FC1F7FE2B880F10
S1110620911D9695879597F90895F894FFCF4C
S10D062E7E0CB69ECCDAFA0EFEDE56
S9030000FC
