S01700006D696E692D70726F6A65746F2D6D312E7372656365
S11300000C9434000C9446000C9446000C94460066
S11300100C9446000C9446000C9446000C94460044
S11300200C9446000C9446000C9446000C94460034
S11300300C9446000C9446000C9446000C94460024
S11300400C9446000C9446000C9446000C94460014
S11300500C9446000C9446000C9446000C94460004
S11300600C9446000C94460011241FBECFEFD8E038
S1130070DEBFCDBF21E0A0E0B1E001C01D92A131FF
S1130080B207E1F70E94D5000C94D2020C94000050
S113009084B1816084B984B18D7F84B987B1826071
S11300A087B987B1846087B987B1886087B91092AE
S11300B08000109281008AB180648AB993E094BD73
S11300C084B5806884BD95BD80E887BD0895873474
S11300D099F480910001909101010196909301019E
S11300E08093000188B18D7F88B988B18B7F88B9EE
S11300F088B1886088B908958D3499F4809102019B
S1130100909103010196909303018093020188B1B9
S11301108D7F88B988B1846088B988B1877F88B9B0
S11301200895803591F48091040190910501019620
S1130130909305018093040188B1826088B988B1E5
S11301408B7F88B988B1877F88B9089585B18E7F00
S113015085B98AE08A95F1F700C085B1816085B9D7
S113016085E38A95F1F7000085B18E7F85B9199BE7
S1130170FECF1092850010928400E1E8F0E08081C7
S1130180826080831999FECF60918400709185000C
S11301901092810080E090E00E94B30128E23EE7E3
S11301A04CE05CE30E94650208950E9448000E94AE
S11301B0A6006B017C0160930D0170930E01809386
S11301C00F01909310012091080130910901409191
S11301D00A0150910B010E9441019F77C1E020E088
S11301E030E040E251E40E94AE0188230CF0C0E00C
S11301F081E08C2780930C01882349F120E030E0D2
S113020048EC52E4C701B6010E94AE01882324F4ED
S113021087E40E9467001BC020E030E04AE753E413
S1130220C701B6010E94AE01882324F48DE40E9424
S113023067000DC020E030E04FEA53E4C701B60187
S11302400E94AE0188231CF480E50E94670080911F
S11302500D0190910E01A0910F01B09110018093B6
S1130260080190930901A0930A01B0930B012FEFA9
S113027081EE94E0215080409040E1F700C00000FE
S113028096CF5058BB27AA270E9459010C942B02E1
S11302900E941D0238F00E94240220F039F49F3F8E
S11302A019F426F40C941A020EF4E095E7FB0C946E
S11302B01402E92F0E943C0258F3BA17620773072D
S11302C08407950720F079F4A6F50C945E020EF4E9
S11302D0E0950B2EBA2FA02D0B01B90190010C0152
S11302E0CA01A0011124FF27591B99F0593F50F46A
S11302F0503E68F11A16F040A22F232F342F4427C2
S1130300585FF3CF469537952795A795F0405395B9
S1130310C9F77EF41F16BA0B620B730B840BBAF089
S11303209150A1F0FF0FBB1F661F771F881FC2F7F4
S11303300EC0BA0F621F731F841F48F48795779508
S11303406795B795F7959E3F08F0B0CF9395880FC2
S113035008F09927EE0F9795879508950E94F0016C
S113036008F481E00895E89409C097FB3EF4909561
S11303708095709561957F4F8F4F9F4F9923A9F07A
S1130380F92F96E9BB279395F69587957795679509
S1130390B795F111F8CFFAF4BB0F11F460FF1BC04D
S11303A06F5F7F4F8F4F9F4F16C0882311F096E9E0
S11303B011C0772321F09EE8872F762F05C066238E
S11303C071F096E8862F70E060E02AF09A95660F47
S11303D0771F881FDAF7880F9695879597F9089500
S11303E0990F0008550FAA0BE0E8FEEF1616170642
S11303F0E807F907C0F012161306E407F50798F0AA
S1130400621B730B840B950B39F40A2661F0232BC2
S1130410242B252B21F408950A2609F4A140A6953E
S11304208FEF811D811D089597F99F6780E870E023
S113043060E008959FEF80EC089500240A94161656
S1130440170618060906089500240A9412161306BE
S1130450140605060895092E0394000C11F488234C
S113046052F0BB0F40F4BF2B11F460FF04C06F5F68
S11304707F4F8F4F9F4F089557FD9058440F551F3E
S113048059F05F3F71F04795880F97FB991F61F012
S11304909F3F79F087950895121613061406551F89
S11304A0F2CF4695F1DF08C0161617061806991FF5
S11304B0F1CF86957105610508940895E894BB27EA
S11304C066277727CB0197F908950E9478020C9448
S11304D02B020E941D0238F00E94240220F0952372
S11304E011F00C9414020C941A0211240C945F025F
S11304F00E943C0270F3959FC1F3950F50E0551F85
S1130500629FF001729FBB27F00DB11D639FAA2764
S1130510F00DB11DAA1F649F6627B00DA11D661FB3
S1130520829F2227B00DA11D621F739FB00DA11DD4
S1130530621F839FA00D611D221F749F3327A00D8E
S1130540611D231F849F600D211D822F762F6A2F2A
S113055011249F5750409AF0F1F088234AF0EE0F8F
S1130560FF1FBB1F661F771F881F91505040A9F7BC
S11305709E3F510580F00C9414020C945F025F3F7F
S1130580E4F3983ED4F3869577956795B795F795F8
S1130590E7959F5FC1F7FE2B880F911D9695879570
S10B05A097F90895F894FFCFC8
S9030000FC
